:020000040800F2
:10000000806E002079020008450E0008410E0008AD
:10001000430E0008D1070008391A0008000000004C
:10002000000000000000000000000000E1010008E6
:10003000210A0008000000002502000851110008F4
:10004000930200089302000893020008930200083C
:10005000930200089302000893020008930200082C
:10006000930200089302000893020008930200081C
:10007000930200089302000893020008930200080C
:1000800093020008930200089302000893020008FC
:1000900093020008930200089302000893020008EC
:1000A00093020008930200089302000893020008DC
:1000B00093020008B511000893020008930200089B
:1000C00093020008930200089302000893020008BC
:1000D00093020008151300089D130008251400085A
:1000E000930200089302000893020008930200089C
:1000F000930200089302000893020008930200088C
:100100009302000893020008F1110008930200080E
:100110006D12000893020008930200089302000881
:10012000930200089302000893020008930200085B
:1001300000F002F800F045F80AA090E8000C8244B4
:100140008344AAF10107DA4501D100F03AF8AFF291
:10015000090EBAE80F0013F0010F18BFFB1A43F0A5
:10016000010318478C3A0000AC3A0000103A24BF53
:1001700078C878C1FAD8520724BF30C830C144BF0C
:1001800004680C607047000000230024002500264E
:10019000103A28BF78C1FBD8520728BF30C148BFEA
:1001A0000B607047642900F00781632900F08B829F
:1001B000732900F09082002070471FB51FBD10B555
:1001C00010BD00F0D5FA1146FFF7F7FF01F0D0FCA3
:1001D00000F0F3FA03B4FFF7F2FF03BC01F060FC98
:1001E000224B19680868B0E8F00F80F30988BFF364
:1001F0006F8F4FF0000080F311884EF00D0E7047A6
:100200000000000006480068006880F3088862B6B5
:1002100061B6BFF34F8FBFF36F8F00DF00BF00BF2A
:1002200008ED00E0EFF30980BFF36F8F0F4B1A6802
:1002300020E9F00F106008B54FF0500080F31188EE
:10024000BFF34F8FBFF36F8F02F05EFE4FF00000E1
:1002500080F31188BDE8084019680868B0E8F00F1D
:1002600080F30988BFF36F8F704700BF78000020CC
:10027000EFF30580704700000948804709480047B0
:10028000FEE7FEE7FEE7FEE7FEE7FEE7FEE7FEE746
:10029000FEE7FEE704480549054A064B70470000A3
:1002A000651100083101000880680020806E002080
:1002B000806A0020806A0020704700000FB4044963
:1002C00010B503AA029800F00BFA10BC5DF814FBFD
:1002D000600000200FB41CB5074B06AA7B4469469A
:1002E0000090059800F0CDF90020694600F0DCF997
:1002F0001CBC5DF814FB0000C90300002DE9F041AF
:100300000E460446002020622046E168884730B34C
:10031000252805D0D4E901219047206A401CF2E746
:10032000E168204600278847050018D0A5F1410064
:10033000192802D820354FF4006732462946204656
:100340002760FFF72FFF40B1012804D0F61D26F0EB
:1003500007060836D8E7361DD6E72846DAE7206ACA
:10036000BDE8F08170B50C460546012A05D0287815
:10037000800600D5EA69002302E0012305E05B1C4A
:10038000934202D2E05C0028F9D1A869E618C01AAD
:10039000A861286A184428622846AFF3008004E068
:1003A000D5E9012114F8010B9047B442F8D328464F
:1003B000AFF3008070BD00002DE9F0410646002437
:1003C00010687529314616A510D0AFF300800028BB
:1003D00002DA404213A507E031688A0701D512A569
:1003E00002E0490704D511A5012401E0AFF3008024
:1003F00000210A2206F1240709E0B0FBF2FCB0FB61
:10040000F2F302FB1C00303078541846491C0028D7
:10041000F3D123462A463046BDE8F04100F0D3B878
:10042000000000002D0000002B0000002000000054
:1004300030B505460B462A4613F8014B12F8010B5E
:1004400008B1A042F8D01CB1002802D06D1CF1E721
:10045000284630BD10B5431C02E010F8011B71B1F5
:100460008107FAD14FF0013202C88C1A8C4314EA8A
:10047000C211F9D0C01A0A0603D0C01E10BDC01A9E
:1004800010BD0A0401D0801E10BD0902FCD0401E20
:1004900010BD032A40F2308010F0030C00F01580EC
:1004A00011F8013BBCF1020F624498BF11F801CB77
:1004B00000F8013B38BF11F8013BA2F1040298BFDC
:1004C00000F801CB38BF00F8013B11F0030300F046
:1004D0001981083AC0F0088051F8043B083A51F8F5
:1004E00004CBA0E80810F5E7121D5CBF51F8043BEF
:1004F00040F8043BAFF30080D20724BF11F8013B62
:1005000011F801CB48BF11F8012B24BF00F8013BC3
:1005100000F801CB48BF00F8012B704702F0FF0341
:1005200043EA032242EA024200F002B84FF000021E
:100530000429C0F0128010F0030C00F01B80CCF1F5
:10054000040CBCF1020F18BF00F8012BA8BF20F863
:10055000022BA1EB0C0100F00DB85FEAC17C24BFB7
:1005600000F8012B00F8012B48BF00F8012B704761
:100570004FF0000200B5134694469646203922BF3C
:10058000A0E80C50A0E80C50B1F12001BFF4F7AF87
:10059000090728BFA0E80C5048BF0CC05DF804EB69
:1005A000890028BF40F8042B08BF704748BF20F8D7
:1005B000022B11F0804F18BF00F8012B70477047D5
:1005C0007047704770472DE9F0470D4699469246AF
:1005D000044600F124080168880604D5E06921F08A
:1005E0001001216000E00120A84201DD471B00E06E
:1005F0000027A1697A1902EB0900081AA061207886
:10060000C00602D42046AFF30080002608E0D4E9FB
:1006100001211AF806009047206A401C761C2062CF
:100620004E45F4DB2078C0060AD52046AFF30080A3
:1006300006E0D4E9012130209047206A401C206266
:10064000381EA7F10107F4DC07E0D4E9012118F80E
:1006500005009047206A401C2062281EA5F1010574
:10066000F3DC2046AFF300802078000602D502209C
:10067000BDE8F0870120FBE701694A1C02610878A8
:10068000704700B58FB0CDE90131002105910549D2
:100690007944CDE9031011466846FFF72FFE0FB0ED
:1006A00000BD0000E5FFFFFF0A6802F8010B0A60C9
:1006B000704710B5436913B1AFF3008001E0FFF755
:1006C00051FE012010BD127800F124010A700022B1
:1006D0004A700122EDE711684FF0FF32E9E70000B0
:1006E000074B70B50D467B44FFF7CBFF0446284609
:1006F00000F03AF810B14FF0FF3070BD204670BDE9
:100700006F14000010B5203AC0F00B80B1E818500B
:10071000203AA0E81850B1E81850A0E81850BFF4EB
:10072000F5AF5FEA027C24BFB1E81850A0E818508A
:1007300044BF18C918C0BDE810405FEA827C24BFDE
:1007400051F8043B40F8043B08BF7047D20728BF6C
:1007500031F8023B48BF11F8012B28BF20F8023BBB
:1007600048BF00F8012B7047007B00F08000704705
:10077000754600F029F8AE4605006946534620F05C
:100780000700854618B020B5FFF784FDBDE820407E
:100790004FF000064FF000074FF000084FF0000B3D
:1007A00021F00701AC46ACE8C009ACE8C009ACE8F0
:1007B000C009ACE8C0098D4670470446AFF300801D
:1007C0002046FFF707FD0000004870471C68002026
:1007D000FEE7000070B5002400F076FA10B1641C4A
:1007E000032CF9DB032C02D118A0FFF767FD0024CE
:1007F0001BA11EA000F0C6F910B1641C032CF7DB8E
:10080000032C02D11BA0FFF759FD002440F25B75B9
:1008100029461EA000F006F910B1641C032CF7DB7A
:10082000032C02D11DA0FFF749FD002420A000F0F9
:10083000F9F910B1641C032CF8DB032C04D1BDE8DA
:1008400070401DA0FFF73ABD70BD00004661696CA5
:1008500065642D53657453746174696F6E210A0069
:1008600051464B4A363636383838000051464B4AE6
:10087000000000004661696C65642D436F6E6E6513
:1008800063742D57494649210A0000003139322E40
:100890003136382E33302E32313900004661696CE2
:1008A00065642D436F6E6E6563742D4950210A0097
:1008B0007365744D330000004661696C65642D4DAD
:1008C0005154542D535542210A000000C10002D555
:1008D00002490860704702494860704704040240BA
:1008E000000002400029016802D041F0010102E04D
:1008F0004FF6FE72114001607047000001684FF62C
:10090000FE72114001600021016041608160C160A0
:100910003149314A0839904203D1486840F00F000C
:1009200006E02D4A1432904204D1486840F0F000AD
:1009300048607047284A2832904203D1486840F402
:100940007060F5E7244A3C32904203D1486840F495
:100950007040EDE7204A5032904203D1486840F49D
:100960007020E5E71C4A6432904203D1486840F4A5
:100970007000DDE7184A7832904203D1486840F0B1
:100980007060D5E7154A111F904203D1086840F006
:100990000F0006E0114A1432904204D1086840F07A
:1009A000F000086070470D4A2832904203D1086871
:1009B00040F47060F5E7094A3C32904203D1086880
:1009C00040F47040EDE7054A50329042EAD10868A1
:1009D00040F47020E5E700000800024008040240EF
:1009E000406880B2704730B5026847F6F0739A43AA
:1009F0000C6A8B682343D1E904452C4323438C695B
:100A00002343CC6923434C6A23438C6A2343134317
:100A10000360CA6842600A6882604968C16030BD8C
:100A200070470000F0B50E4607464FF48074A1B041
:100A300021463148FFF77AFD80216846FFF798FD8F
:100A40002EA16846FFF746FC6846FFF703FDC1B2DA
:100A5000684600F00BFB4FF47A75284601F046F823
:100A6000224625492F4800F06FF923492EA0FFF7B1
:100A700025FC33A12048FFF7DBFC002828D02146C5
:100A80001D48FFF753FD80216846FFF771FD33468F
:100A90003A462CA16846FFF71DFC6846FFF7DAFCD2
:100AA000C1B2684600F0E2FA284601F01FF822467B
:100AB00011491C4800F048F90F4928A0FFF7FEFB38
:100AC0001FA10D48FFF7B4FC98B1002021B0F0BD84
:100AD00080216846FFF74CFD26A16846FFF7FAFB28
:100AE0006846FFF7B7FCC1B2684600F0BFFA0420C1
:100AF000ECE70320EAE700001A67002041542B4D81
:100B0000515454555345524346473D302C312C22C5
:100B10004D33222C22222C22222C302C302C22222B
:100B200000000000280B002044656275672D436FAC
:100B30006E6E6563742D555345523A20257300003F
:100B40004F4B000041542B4D515454434F4E4E3D9A
:100B5000302C222573222C25642C300044656275CC
:100B6000672D436F6E6E6563742D49503A2025736F
:100B70000000000041542B4D515454434C45414E0C
:100B80003D30000070B50D4606464FF48074A0B0AD
:100B900021461648FFF7CAFC80216846FFF7E8FCAB
:100BA0002B46324612A16846FFF794FB6846FFF7D2
:100BB00051FCC1B2684600F059FA4FF47A7000F067
:100BC00095FF224609490F4800F0BEF807490EA0DC
:100BD000FFF774FB12A10548FFF72AFC10B10020B3
:100BE00020B070BD4FF0FF30FAE700001A67002018
:100BF00041542B43574A41503D222573222C222534
:100C000073220000280B002044656275672D436F36
:100C10006E6E6563742D574946493A25730000008E
:100C20004F4B000030B505464FF48074A1B021460B
:100C30001548FFF77BFC80216846FFF799FC2A46A0
:100C400012A16846FFF746FB6846FFF703FCC1B2F6
:100C5000684600F00BFA4FF47A7000F047FF224626
:100C600009490F4800F070F807490EA0FFF726FB6E
:100C700014A10548FFF7DCFB10B1002021B030BD06
:100C80006FF00300FAE700001A67002041542B4D73
:100C90005154545355423D302C222573222C31009F
:100CA000280B002044656275672D436F6E6E656387
:100CB000742D4D5154545F5375623A20222573228E
:100CC000000000004F4B000010B54FF48074214627
:100CD0001148FFF72BFC0B2110A000F0C7F91248B8
:100CE00000235A1E1946006802F008FA0A2000F094
:100CF000FDFE224608490D4800F026F806490CA0E2
:100D0000FFF7DCFA0FA10448FFF792FB08B10020BF
:100D100010BD032010BD00001A67002041542B4372
:100D2000574D4F44453D31001C000020280B00204A
:100D300044656275672D53657453746174696F6E91
:100D40003A2573004F4B000070B584880389C5882D
:100D50001C44641B94FBF3F503FB15439CB29442C3
:100D600000D9144600230BE0C28805891A44B2FB5F
:100D7000F5F605FB16220568AA5CCA545B1C9BB2FB
:100D8000A342F1D3C18802892144B1FBF2F302FBF3
:100D90001311C180204670BD016000218180C18097
:100DA00002817047F0B5CC78002204F00F03E4060E
:100DB00001D58C7823430C784FF00F0C14F0FF0F03
:100DC0004FF0010E1BD005680E880EFA02F4264083
:100DD000A64210D196000CFA06F725EA070703FA97
:100DE00006F5CE783D43282E02D0482E02D002E0F0
:100DF000446100E00461521C082AE5D305600A88BA
:100E0000FF2A1CD94468002202F108060EFA06F5F2
:100E10000E882E40AE420ED196000CFA06F7BC4367
:100E200003FA06F7CE783C43282E00D14561CE78F0
:100E3000482E00D10561521C082AE5D34460F0BD5C
:100E4000FEE7FEE77047000030B50F23C278017857
:100E50000125F2B1144A126801F1E02102F4E062C6
:100E6000C2F5E062120AC2F10404D3404278A24003
:100E700084781C401443220181F80024007800F09B
:100E80001F018D404009800000F1E020C0F80051B2
:100E900030BD01F01F0085404809800000F1E020CE
:100EA000C0F8805130BD00000CED00E0024908435D
:100EB00002490860704700000000FA050CED00E0F0
:100EC000044A0029516901D0014300E08143516186
:100ED0007047000000100240044A0029D16901D087
:100EE000014300E08143D1617047000000100240DF
:100EF000044A0029116901D0014300E081431161D6
:100F00007047000000100240044A0029916901D096
:100F1000014300E0814391617047000000100240EE
:100F2000044A0029D16801D0014300E08143D16027
:100F3000704700000010024030B5204A5168204B35
:100F400011F00C0103D0042901D0082901D003605D
:100F500012E05168536801F470114FF0020413F469
:100F6000803F04EB914102D053689B0301D5154BA0
:100F700000E0134B5943016051680F2303EA11113C
:100F8000114B5C5C0168E14041605468072505EA4B
:100F900014241C5D21FA04F48460546805EAD42406
:100FA0001B5DD940C1605268032303EA9232064BAD
:100FB0001B1F9A5CB1FBF2F1016130BD00100240D1
:100FC00000127A0000093D006800002010B5064CB0
:100FD000012060716178204600F037F96178204681
:100FE000BDE8104000F02ABDED00002070B51948A2
:100FF00000235A1E1946006802F080F8642001F0B0
:10100000D1FD4FF4806214491448FFF79DFE124D44
:1010100000242E197079A02801D2302100E0372158
:1010200001EB10110EA0FFF749F9707900F00F01E4
:101030000A290CA001D2303100E03731FFF73EF928
:10104000641CE4B2062CE4D307A0FFF737F90020B4
:1010500070BD000018000020FC660020A4130020D2
:1010600025630000256320000A00000010B5C0B011
:101070000C46024604A16846FFF72CF9A11C6846FD
:1010800000F0B6FB40B010BD25730D0A0000000053
:101090000CB50022264800920192016841F480318B
:1010A00001604FF4A063016801F4003101910099DF
:1010B000491C0091019911B900999942F3D1016835
:1010C000890333D5012101911A490A6842F01002BF
:1010D0000A600A6822F003020A600A6842F002020B
:1010E0000A604168416041684160416841F4806143
:1010F0004160416821F47C114160416841F4E8118C
:101100004160016841F08071016001688901FCD58E
:10111000416821F003014160416841F002014160F2
:101120004168C1F381010229FAD10CBD01920CBDC5
:1011300000100240002002404FF0E021042808691E
:1011400003D020F004000861704740F00400FAE783
:1011500010B502F0F1FA012803D0BDE8104001F00B
:101160004DBF10BD0F4810B5016841F0010101608D
:1011700041680D4A1140416001680C4A114001600C
:10118000016821F480210160416821F4FE01416081
:101190004FF41F018160FFF77BFF05494FF00060AE
:1011A000086010BD001002400000FFF8FFFFF6FECF
:1011B00008ED00E010B5084C0121204600F039F898
:1011C000012802D105A0FFF779F82046BDE81040BC
:1011D000012100F02BB800000004004054494D33B9
:1011E000CAE4B3F62E2E2E2E2E2E2E0D0A0000004F
:1011F00010B5084C0121204600F01BF8012802D14F
:1012000005A0FFF75BF82046BDE81040012100F083
:101210000DB80000000C004054494D35CAE4B3F647
:101220002E2E2E2E2E2E2E0D0A000000C9430182D6
:10123000704702460020138A92890B4202EA01029B
:1012400002D0002A00D00120704730B500231A4692
:101250004D1E03E0845C6340521CD2B2AA42F9DB0B
:101260000844DA4300F8012C30BD0000F8B5002036
:101270001F4C40F2244500902946204600F06CF9AE
:10128000E8B11C4E3046FFF7ABFB1B49C0F16400D0
:1012900088803046FFF7A4FB014618A0FFF70EF840
:1012A0001A48006810B1694602F072F92188204698
:1012B0000F49091D0988294600F0FCF8F8BD40F2E5
:1012C00026652946204600F047F90028F6D0294631
:1012D000204600F0EFF8074800212830FFF702FB16
:1012E0000B4840680028E9D0694602F051F9F8BD82
:1012F000004C004030040240280B0020436F756E04
:10130000742069732025640A000000001C0000207E
:101310004000002038B500201B4D40F224440090CE
:101320002146284600F018F9A8B11848FFF758FBE5
:101330001749C0F5007088801648006810B16946EA
:1013400002F026F9298828460F49091D09882146F7
:1013500000F0B0F838BD40F226642146284600F07F
:10136000FBF80028F6D02146284600F0A3F80748ED
:1013700000211438FFF7B6FA074840680028E9D082
:10138000694602F005F938BD0038014058000240B6
:101390001C0B0020140000203800002038B500206D
:1013A0001B4D40F2244400902146284600F0D4F81A
:1013B000A8B11848FFF714FB1749C0F58060888072
:1013C0001648006810B1694602F0E2F829882846FC
:1013D0000F49091D0988214600F06CF838BD40F21C
:1013E00026642146284600F0B7F80028F6D02146AA
:1013F000284600F05FF8074800211430FFF772FA22
:10140000074840680028E9D0694602F0C1F838BDB5
:10141000004400406C000240980B00202000002097
:1014200048000020F8B500201D4C40F224460090F2
:101430003146204600F090F81A4FC8B13868251D93
:1014400098B11948FFF7CCFA1849C0F58060888038
:101450001748006810B1694602F09AF821882046C2
:101460002988314600F026F8F8BD01203860F5E7FC
:1014700040F226652946204600F06EF80028F3D099
:101480002946204600F016F8074800211438FFF7D7
:1014900029FAB8680028E7D0694602F079F8F8BD63
:1014A000004800405000002030000240A4130020FB
:1014B000180000200A0A01219140C94301807047A9
:1014C0000029818902D041F4005101E021F400514A
:1014D00081817047002A828A01D00A4300E08A4352
:1014E00082827047174910B588420AD101218C03C6
:1014F0002046FFF715FD2046BDE810400021FFF70C
:101500000FBD1149884202D101214C0410E00F495E
:10151000884202D101218C040AE00D49884202D19F
:101520000121CC0404E00B4988420AD101210C05B9
:101530002046FFF7DDFC2046BDE810400021FFF704
:10154000D7BC10BD003801400044004000480040B6
:10155000004C00400050004070B501F01F0501260E
:101560000024C1F3421306FA05F2012B0FD0022B1F
:101570000FD0838A4FEA11210088134206FA01F640
:1015800000EA060001D000B10124204670BD838925
:10159000F0E7038AEEE710B5C1F3421301F01F0430
:1015A0000121A140012B07D0022B07D01430002AC3
:1015B000026805D00A4304E00C30F8E71030F6E783
:1015C0008A43026010BD000030B50446008A85B031
:1015D0000D464CF6FF710840E98801432182A0893D
:1015E0004EF6F3110840A9882A8911436A890243FB
:1015F0001143A181A08A4FF6FF410840A989014308
:10160000A1826846FFF798FC1948844201D10398EB
:1016100000E00298A189090400EBC00101EB001071
:10162000296801D5490000E08900B0FBF1F064228F
:10163000B0FBF2F109010B096FF018056B4300EBE9
:101640008300A3891D044FF0320306D503EBC000CD
:10165000B0FBF2F000F0070005E003EB0010B0FB78
:10166000F2F000F00F000843208105B030BD00000B
:10167000003801402DE9F04391B001211020FFF71F
:1016800043FC0121C804FFF727FC4FF48060ADF84C
:101690003C0003208DF83E0018204E4C8DF83F0092
:1016A0000FA92046FFF77EFBE114ADF83C100421A2
:1016B0008DF83F100FA92046FFF774FB34208DF8FA
:1016C000400005208DF8410001258DF842508DF82D
:1016D000435010A8FFF7B8FB00244FF4E1300B9003
:1016E000ADF834400C203C4EADF83040ADF836003B
:1016F000ADF83240ADF838400BA93046FFF764FF33
:10170000012240F224413046FFF745FF012240F21A
:1017100026613046FFF73FFF0122C0213046FFF728
:10172000D9FE01213046FFF7CBFE01210220FFF751
:10173000C7FBDFF8A8904846FFF7E0F8361D2848B9
:101740000096CDE9010403A96420802781E8910077
:1017500020200694CDE907404FF48058CDE9098454
:1017600069464846FFF73FF91E48FFF7AFF80121E9
:101770004846FFF7B7F8DFF8649009F128094846B2
:10178000FFF7BCF810200096CDE90140CDE90354E5
:10179000CDE90574CDE90848079413480A94FFF78A
:1017A00095F869464846FFF71EF90D496422A1F1F4
:1017B0000C00FFF7F1FA0121084601F035FC0B4C53
:1017C00000212060012001F02FFC606011B0BDE815
:1017D000F083000000100140004C00403004024043
:1017E000340B002000010010000001104000002018
:1017F00070B50C460546642911D8002C0FD0084E50
:1018000000213046FFF76EF8301D046004480C30AC
:1018100005603046BDE870400121FFF763B870BD38
:10182000580402400A4601460148FFF78DBA0000FD
:101830001C0B00202DE9F04792B0012144F2040076
:10184000FFF762FB4FF40075ADF83C5003208DF8B4
:101850003E0018204A4C8DF83F000FA92046FFF7A4
:10186000A1FA2115ADF83C1004218DF83F100FA905
:101870002046FFF797FA25208DF8400005208DF8C7
:10188000410000248DF8424001268DF8436010A8E5
:10189000FFF7DAFA4FF4E1300B90ADF834400C204A
:1018A000384FADF83040ADF83600ADF83240ADF805
:1018B00038400BA93846FFF787FE012240F2244149
:1018C0003846FFF768FE012240F226613846FFF7EE
:1018D00062FE0122C0213846FFF7FCFD0121384697
:1018E000FFF7EEFD01210846FFF7EAFADFF898A0BE
:1018F0005046FFF703F83F1D244801A9009781E8EF
:1019000031004FF08008CDE9044820200694CDE94D
:1019100007404FF48059CDE9099469465046FFF7D6
:1019200062F801215046FEF7DDFFDFF85CA0AAF166
:10193000140A5046FEF7E2FF10200097CDE901405F
:10194000CDE90364CDE90584CDE9084907946946EA
:1019500050460A94FFF747F80C492A4601F50070F3
:10196000FFF71AFA0121084601F05EFB084C00213E
:101970002060012001F058FB606012B0BDE8F087E4
:101980000008014000380140580002401C090020B6
:10199000380000202DE9F0410C468046B1F5006F7B
:1019A00026D8002C24D0134D00234FF4FA7632466B
:1019B0001946286801F0A2FB0F4F00213846FEF7B8
:1019C00091FF0D4844388464C0F8508001213846A6
:1019D000FEF788FF002332461946686801F08EFB47
:1019E0002868BDE8F04100231A46194601F09CBC66
:1019F000BDE8F081380000204400024030B40C46BD
:101A00000146054B0020994204D1204630BC1146C6
:101A1000FFF708BF30BC704700380140FFF70ABF2E
:101A20000B460449884203D111461846FFF7B2BF5E
:101A30007047000000380140FEE700002DE9F0414A
:101A40000C460746B1F5806F24D8002C22D0124DE9
:101A500000234FF4FA721946686801F04FFB0F4EED
:101A600000213046FEF73EFF0C481C3804628762B6
:101A700001213046FEF736FF00235A1E1946A8689A
:101A800001F03CFB6868BDE8F04100231A461946A6
:101A900001F04ABCBDE8F081500000201C0002406B
:101AA0007047000010B50420FFF746FB0C480D49B5
:101AB0000D4A0068B0FBF1F3B0FBF1F14FF47A701E
:101AC00041431370012050804FF0E020026942F042
:101AD000020202614161016941F00101016110BD31
:101AE0002400002040420F005C00002070B5044636
:101AF00001F022FE01280CD0094D6888844203D3EE
:101B0000B4FBF0F001F04EF86888B4FBF0F100FB94
:101B100011444FF47A706043BDE8704000F002B8A1
:101B20005C00002070B54FF0E02500216C69094A87
:101B3000AB6912785043AA699A42FCD002D2A3EB57
:101B4000020302E0A4EB0206334419441346814227
:101B5000F1D370BD5C00002004490A881206FCD550
:101B6000024AC1B2121D11807047000000380140C6
:101B70001CB54FF44070FFF799F9FFF793FFFFF79B
:101B80004DFF07490120CDE900010023802205A176
:101B9000074801F0A5FD01F065F900201CBD00001B
:101BA0000000002073746172745F7461736B0000D5
:101BB000692500082DE9F041184E0F460446F568E6
:101BC0003068001D00F064FE38B9306890F82C10C1
:101BD00001208840316981433161601C07D137B1F0
:101BE0003168BDE8F0410E48091D00F089BE30683B
:101BF0002C44AC424460316805D2B06BBDE8F04182
:101C0000091D00F065BE706B091D00F061FEB06A31
:101C1000844200D2B462BDE8F08100007800002068
:101C2000C01600202DE9F041054600F075FE2D4E4E
:101C3000B068401CB06030682B4F10B1706930B391
:101C40002BE03560B068012827D1002404EB840024
:101C500007EB800000F02EFE641C202CF6D32348F6
:101C600000F028FE2148143000F024FE1F482830E0
:101C700000F020FE1D483C3000F01CFE1B48503098
:101C800000F018FE194870631430B06305E0306846
:101C9000E96AC06A884200D83560706A0121401C38
:101CA00070626864E86A326981401143316100EB17
:101CB000800007EB8000291D00F022FE00F068FE86
:101CC000706900280CD03068E96AC06A884207D27F
:101CD00007494FF080500860BFF34F8FBFF36F8FFD
:101CE000BDE8F08178000020F0130020701600207D
:101CF00004ED00E010B500F00FFE0E4C2068A0B916
:101D00000D4800F0D7FD0C48143000F0D3FD0A4810
:101D1000E0601430206100221021052001F0B2F9AA
:101D2000206010B105A100F009FFBDE8104000F0EF
:101D30002FBE0000B4000020D4160020546D725154
:101D40000000000070B5124E124D1CE001F0D4F8F6
:101D5000306820B1002401F01DFEA4B901E0012487
:101D6000F9E700F0D9FDF068C468201D00F090FD8F
:101D7000A868401EA8606868401E686000F008FE01
:101D8000204600F052F868680028DFD170BD0000DE
:101D9000AC1600207800002030B4026C0B46002AFC
:101DA0000BD0C1681144C1604468A14201D30168ED
:101DB000C16030BC1846FEF76CBB30BC70472DE9E3
:101DC000F041856B174604460026026C82B1C7B10C
:101DD000E068FEF75EFBE168206C091AE1602268AA
:101DE000914202D26168081AE060022F16D017E013
:101DF0002068A8B9606801F027FD064600206060F1
:101E00000EE0A068FEF745FB216CA0680844A060C6
:101E10006168884204D32068A06001E005B16D1EAE
:101E20006D1CA5633046BDE8F08110B50446006B1B
:101E300000F0E0FD2046BDE8104000F0DBBD0000F2
:101E400010484FF4A041420706D0C01D0D4920F0B4
:101E50000700411AC1F5A0410B4A00230144C2E921
:101E600000030839103A21F0070111604B600B6044
:101E70000B1AC0E9001393604FF000405360D0602C
:101E800070470000FC160020D8000020074E4FF0DD
:101E90008054074DFFF756FF30680128FAD92C60AF
:101EA000BFF34F8FBFF36F8FF4E70000F0130020F4
:101EB00004ED00E02DE9F047DDE909840E46174600
:101EC000824691009946089DA522206BFEF726FBCD
:101ED0006FF00301206B01EB8701084420F0070736
:101EE000780705D040F22B3219A11EA0FEF7E6F9C3
:101EF00000202218315C82F83410315C11B1401C92
:101F00001028F6D3002684F84360202D00D31F2527
:101F1000E562C4E91356201D00F0D7FC04F1180057
:101F200000F0D3FC2461C5F120006462A061666505
:101F300084F858604A465146384600F003FB20605A
:101F4000B8F1000F01D0C8F80040BDE8F0870000EC
:101F50002E2E5C4672656552544F535C7461736BF0
:101F6000732E63004572726F723A25732C25640DCF
:101F70000A00000030B5114900E011460A688242AB
:101F8000FBD34B685C18844203D140681844486016
:101F9000084643681C18944209D1084C103C246838
:101FA000A24209D052681A4442600A68126802606C
:101FB000814200D0086030BD0460F9E7D8000020FD
:101FC00070B5002441600B4D0061914206D8D11AD2
:101FD0008269914206D2011D286907E09A4203D224
:101FE000994201D3012403E0011DE86800F070FC70
:101FF000204670BDB400002010B5044600F08CFCF3
:10200000A06B20B1002400F0C3FC204610BD0124C9
:10201000F9E700002DE9F34100980F460026846C93
:102020002CB940F6CE1216A11AA0FEF747F9A06B04
:10203000E16B884205D340F6CF1211A115A0FEF73F
:102040003DF9A06BE16B88420CD294F945503A46B9
:1020500069462046FFF7B3FE0646681C05D06D1C96
:1020600084F845503046BDE8FC81606A0028F9D00C
:1020700004F1240001F042FC0028F3D00126F1E72E
:102080002E2E5C4672656552544F535C71756575B2
:10209000652E63004572726F723A25732C25640DAC
:1020A0000A000000F8B5054614480E46C068C0682E
:1020B000C468201D00F0ECFBE069012817D1A0697D
:1020C0002B46411932462046FFF77AFF78B10020AF
:1020D0000346014600902A46204601F041FD30B9F2
:1020E00007494FF4027201F11800FEF7E7F8616A40
:1020F00001B02046BDE8F04008470000B4000020D1
:10210000C43A000870B586B02F4E53E001980028FD
:1021100006DADDE90301029A90470198002849DBBD
:10212000039C606910B1201D00F0B2FB05A800F00F
:10213000A7F8054601980A283CD2DFE800F005051B
:10214000053B273805053B270298A1690346014452
:102150002A462046FFF734FF00282BD0616A20462C
:102160008847E069012825D1002000900298A169E4
:10217000002342181946204601F0F2FCD0B940F283
:10218000213212A117A0FEF799F813E00298A0617E
:1021900028B94FF44E720DA112A0FEF78FF8A06976
:1021A0002B4641191A462046FFF70AFF02E0204657
:1021B00000F020FC00231A4601A9306800F09EFFC1
:1021C0000028A3D106B070BDB40000202E2E5C46BE
:1021D00072656552544F535C74696D6572732E63FA
:1021E000000000004572726F723A25732C25640D51
:1021F0000A000000F8B50D46064600F07DFE684670
:1022000000F03EF80446009810B101F0C3FBF8BDA1
:102210001148ADB101690968D9B10025311B2A46C1
:10222000006800F09DFC01F0B5FB0028EFD10B49E0
:102230004FF080500860BFF34F8FBFF36F8FF8BD32
:10224000A642EBD801F0A6FB21463046FFF72AFF55
:10225000F8BD0125E2E70000B400002004ED00E035
:102260000648416B096829B1416BC968C96849686A
:10227000816270474FF0FF31FAE7000078000020DC
:1022800070B5054601F066FA064E0446B068844211
:1022900003D200F009F8012000E000202860204669
:1022A000B46070BDB4000020F8B5184E26E0C068D8
:1022B000C4680568201D00F0EBFA616A2046884773
:1022C000E06901281AD1A0692844A84206D92461EE
:1022D0006060211DF06800F0FBFA0FE0002003466B
:1022E000014600902A46204601F03AFC30B90849E0
:1022F00040F2923201F11800FDF7E0FFF06801684A
:102300000029D4D13169C6E90310F8BDB40000201A
:10231000C43A000808484068401C04D0F42207A1D1
:1023200011A0FDF7CBFF502080F31188BFF34F8F32
:10233000BFF36F8FFEE70000E00000202E2E5C460A
:1023400072656552544F535C706F727461626C6554
:102350005C525644535C41524D5F434D335C706F49
:1023600072742E63000000004572726F723A25731A
:102370002C25640D0A000000084CE068016839B1A2
:10238000002139B10020FFF735FFFFF7BBFEF4E76E
:102390000121F6E7C0680068F5E70000B4000020FE
:1023A0002DE9F041044600F0B7FA94F9455004F1E4
:1023B000240610E0A06C20B100212046FFF72AFE81
:1023C00004E0606A48B1304601F098FA08B100F0C4
:1023D00085FC6D1E6DB2002DECDC4FF0FF3684F8ED
:1023E000456000F0D5FA00F097FA94F9445004F1F2
:1023F000100709E0206948B1384601F07FFA08B1BA
:1024000000F06CFC6D1E6DB2002DF3DC84F84460AE
:10241000BDE8F04100F0BCBA2DE9F04105460026C8
:1024200000F06AFD324F386808B9FFF709FDF86817
:1024300005424FD1002D4DD0083568070BD005F06F
:102440000700C0F108000544680704D0BF2229A195
:1024500032A0FDF733FF002D3CD07868854239D893
:10246000234910310846046801E0214604466068AB
:10247000A84202D220680028F7D13868B8468442C2
:1024800028D00E682068086060680836401B102855
:102490000ED96719780704D0EC2216A11FA0FDF70A
:1024A0000DFF6068401B786038466560FFF762FD8D
:1024B0006168D8F804004246401AC8F80400D8F809
:1024C0000830984200D29060D8F80C0001430020F8
:1024D000C4E9000101F05EFA700705D04FF496726E
:1024E00004A10EA0FDF7EAFE3046BDE8F081000031
:1024F000C80000202E2E5C4672656552544F535C16
:10250000706F727461626C655C4D656D4D616E6774
:102510005C686561705F342E630000004572726F05
:10252000723A25732C25640D0A00000004490868DE
:1025300018B10868026D521C0265086870470000F7
:102540007800002010B5031F4FF080741C601B1F23
:1025500021F001011960191F024B0B60143940383A
:102560000A6010BD152300081CB500F0D5F90F490D
:102570000220CDE90001002380220DA10F4801F0C7
:10258000AFF80A4903200C31CDE900010023802275
:102590000BA10E4801F0A4F80448001F006800F0E9
:1025A00037FBBDE81C4000F0F3B900000400002038
:1025B0007461736B315F7461736B0000D125000827
:1025C0007461736B345F7461736B0000BD26000827
:1025D000FFF724FA00210A2000F026FD1A4F1B4EB7
:1025E000DFF86C804FF0FF394FF48065786100238D
:1025F0004A461946786900F081FD2A461549304659
:10260000FFF7FCF904460228F1D929461048FDF7E6
:102610008DFF11A10E48FDF75DFE0D48FDF71AFF75
:10262000404422460B49FDF734FF094A17A11046E2
:10263000FDF750FE0648FDF70DFF82B20449304613
:10264000FFF7EEF9D3E7000000000020003801405A
:102650001C0500201C010020EFBFBDEFBFBDEFBF78
:10266000BDEFBFBDEFBFBDEFBFBD667265657472E4
:102670006F7320EFBFBDC4B4EFBFBDEFBFBDEFBFF1
:10268000BD2068616E646C65723A000025730D0AA6
:10269000000000004FF4165000F044F80021012023
:1026A00000F0C2FC02498861FEF7A0FCFCE70000D4
:1026B00000000020FEF78AFCFCE700001CB5FEF7D6
:1026C000D9FF0021012000F0AFFC0D49C861FEF7E1
:1026D00081F80B4803240830CDE900400023802214
:1026E00008A10B4800F0FCFF054800230C30CDE9A1
:1026F0000040802207A10A4800F0F2FFFEE7000038
:10270000000000207461736B325F7461736B0000B2
:10271000952600087461736B335F7461736B0000FE
:10272000B52600082DE9F047044692B001210820A3
:10273000FEF7EAFB01218804FEF7CEFB4F4E304640
:10274000FEF7D0FE3515ADF83C5003208DF83E0065
:1027500018204B4F8DF83F000FA93846FEF722FB9B
:102760006800ADF83C0048208DF83F000FA93846BE
:10277000FEF718FB0B940024ADF834400C20ADF8A4
:102780003040ADF83600ADF83240ADF838400BA916
:102790003046FEF719FF012240F224413046FEF791
:1027A000FAFE012240F226613046FEF7F4FE0122D5
:1027B000C0213046FEF78EFE01213046FEF780FE36
:1027C00027208DF8400005208DF8410001268DF866
:1027D00042608DF8436010A8FEF736FB01210846E1
:1027E000FEF76EFBDFF89CA05046FEF787F8234FFC
:1027F00025483F1D01A9009781E831004FF080096D
:10280000CDE9044920200694CDE907404FF48058D3
:10281000CDE9098469465046FEF7E5F801215046A6
:10282000FEF760F8DFF85CA0AAF1140A5046FEF744
:1028300065F810200097CDE90140CDE90364CDE9AA
:102840000594CDE908480794694650460A94FEF776
:10285000CAF80D492A4601F58060FEF79DFA01216C
:10286000084600F0E1FB094C00216060012000F007
:10287000DBFBA06012B0BDE8F0870000004800401C
:10288000000C014030000240A40F00205000002046
:10289000D0E9013201699A60D0E901235A604A689F
:1028A000824201D182684A60002202610868401EAB
:1028B0000860704700F108014FF0FF32C0E90112D3
:1028C000C160016100210160704700210161704712
:1028D00030B50C68621C02D000F1080202E0026907
:1028E00004E01A4653681D68A542FAD953684B6044
:1028F00099608A60516008610168491C016030BDBF
:1029000042684A6093688B6093685960916008617F
:102910000168491C01607047502080F31188BFF3A3
:102920004F8FBFF36F8F09494868401C48600128EA
:102930000AD10748006810F0FF0F05D04FF4BD72B0
:1029400004A10FA0FDF7BABC70470000E000002012
:1029500004ED00E02E2E5C4672656552544F535CC8
:10296000706F727461626C655C525644535C415284
:102970004D5F434D335C706F72742E630000000036
:102980004572726F723A25732C25640D0A0000009F
:1029900010B5084C606828B940F2811206A111A058
:1029A000FDF78CFC6068401E606001D180F31188E7
:1029B00010BD0000E00000202E2E5C4672656552BE
:1029C000544F535C706F727461626C655C52564414
:1029D000535C41524D5F434D335C706F72742E6394
:1029E000000000004572726F723A25732C25640D49
:1029F0000A00000070B500282AD0164DA0F1080486
:102A00006068E968084205D14FF4A07212A11CA0C9
:102A1000FDF754FC206828B140F241120EA118A025
:102A2000FDF74CFC6068E968084211D02268002A72
:102A30000ED18843606000F05FFA606869680844FE
:102A400068602046FFF796FABDE8704000F0A2BF2C
:102A500070BD0000C80000202E2E5C4672656552D5
:102A6000544F535C706F727461626C655C4D656D40
:102A70004D616E675C686561705F342E63000000B5
:102A80004572726F723A25732C25640D0A0000009E
:102A900006484FF47A710068B0FBF1F14FF0E02086
:102AA000491E416107210161704700002400002098
:102AB00010B5FDF7DDFB104C10280CD300F1E02021
:102AC00090F8F0032178884205D24FF42A720BA1C6
:102AD00015A0FDF7F3FB18480068A16800F4E0605A
:102AE000884207D9BDE810404FF42E7203A10EA012
:102AF000FDF7E4BB10BD0000E00000202E2E5C4678
:102B000072656552544F535C706F727461626C658C
:102B10005C525644535C41524D5F434D335C706F81
:102B200072742E63000000004572726F723A257352
:102B30002C25640D0A0000000CED00E010B5074BD9
:102B4000002253F832401CB1521C082AF9D310BDA0
:102B500043F8321003EBC201486010BDB0130020EF
:102B600070B515460E460446FFF7D6FE94F944109C
:102B70000020491C01D184F8440094F94510491CF7
:102B800001D184F84500FFF703FFA06B28B92A465E
:102B9000314604F1240000F0D1F82046BDE8704031
:102BA000FFF7FEBB10B5040012D00E49096B29B126
:102BB00040F2CF420CA111A0FDF780FB00F09CF980
:102BC00000212046FEF7F6FF00F0E4FE002807D1C2
:102BD0000E494FF080500860BFF34F8FBFF36F8FE7
:102BE00010BD0000780000202E2E5C4672656552F4
:102BF000544F535C7461736B732E63004572726F34
:102C0000723A25732C25640D0A00000004ED00E0E3
:102C100070B50446FFF780FE234D04B92C68201DD3
:102C2000FFF736FE58B9E06A204A00EB800152F8FF
:102C3000211021B901218140286988432861A06AB7
:102C400018B104F11800FFF723FE686A401C68629F
:102C50002868844207D1211D1548FFF751FE686896
:102C6000401C686007E0A868401EA8602046FFF787
:102C7000DCF8FFF7F5FAFFF78BFE6869002812D041
:102C8000286884420FD1286B28B140F2654209A11F
:102C90000DA0FDF713FB10494FF080500860BFF303
:102CA0004F8FBFF36F8F70BD78000020F0130020AE
:102CB000AC1600202E2E5C4672656552544F535C54
:102CC0007461736B732E63004572726F723A257371
:102CD0002C25640D0A00000004ED00E001490120EC
:102CE000C86170477800002070B50D46040005D11A
:102CF00040F6063207A10CA0FDF7E0FA0E48016885
:102D000020461831FFF7E4FD2846BDE87040012158
:102D1000FEF750BF2E2E5C4672656552544F535CD1
:102D20007461736B732E63004572726F723A257310
:102D30002C25640D0A0000007800002070B51446B0
:102D40000E46050005D140F6313209A10DA0FDF770
:102D5000B5FA1048016828461831FFF7D1FD0CB1CB
:102D60004FF0FF3621463046BDE87040FEF722BFE7
:102D70002E2E5C4672656552544F535C7461736BC2
:102D8000732E63004572726F723A25732C25640DA1
:102D90000A0000007800002070B5040039D01D4DF5
:102DA000E06A2968C96A884233D2A069002804DB36
:102DB0002868C06AC0F12000A061E06A164E00EBEE
:102DC0008000616906EB800081421FD1201DFFF762
:102DD0005FFD012150B9E06A00EB800256F8222025
:102DE00022B92A6901FA00F082432A612868C06A80
:102DF000E0622A6981401143296100EB800006EB03
:102E00008000211DBDE87040FFF77ABD2868C06AC8
:102E1000E06270BD78000020F013002010B50400BF
:102E200005D140F6C13205A109A0FDF747FA0C48CB
:102E3000016A2160C068606010BD00002E2E5C46F3
:102E400072656552544F535C7461736B732E6300EB
:102E50004572726F723A25732C25640D0A000000CA
:102E6000780000201CB517480024CDE90040234617
:102E7000822215A1164800F033FC012803D100F08E
:102E800035FE01280AD0401C1BD102B040F28472EA
:102E9000BDE810400FA114A0FDF710BA502080F338
:102EA0001188BFF34F8FBFF36F8F06484FF0FF318C
:102EB0002C38816201214161C460BDE81C4000F0F2
:102EC00061B81CBDA400002049444C45000000002E
:102ED0008D1E00082E2E5C4672656552544F535C61
:102EE0007461736B732E63004572726F723A25734F
:102EF0002C25640D0A0000000248016B491C016387
:102F0000704700007800002070B5134D286B10B199
:102F10000120E86170BD0020E86128690F4EB0FA19
:102F200080F0C0F11F0000EB800456F8240028B99F
:102F300040F6F6220AA10FA0FDF7C0F906EB8400C7
:102F400000F10802416849684160914201D1496835
:102F50004160C868286070BD78000020F013002030
:102F60002E2E5C4672656552544F535C7461736BD0
:102F7000732E63004572726F723A25732C25640DAF
:102F80000A0000001CB51A4908780190FF2008705B
:102F900008788DF800009DF80000164A00F05000F7
:102FA00010700720906007E09068401E90609DF8C8
:102FB000000040008DF800009DF800000006F3D4EA
:102FC000107A000200F4E0609060019808700A48EE
:102FD000016841F470010160016841F070410160D5
:102FE000FFF756FD00205060FDF70CF900201CBDD6
:102FF00000E400E0E000002020ED00E010B55020EB
:1030000080F31188BFF34F8FBFF36F8F00F0A8FBE1
:1030100018B104494FF080500860002080F31188F7
:1030200010BD000004ED00E070B50C46050005D1B0
:1030300040F2BD220AA10FA0FDF740F9AC4205D92C
:1030400040F2BE2206A10BA0FDF738F902220021B2
:10305000284600F017F8002800D0846370BD0000F7
:103060002E2E5C4672656552544F535C71756575C2
:10307000652E63004572726F723A25732C25640DBC
:103080000A0000002DE9F04117460E46050005D163
:103090004FF4C47210A115A0FDF710F9BEB105FBE5
:1030A00006F05430FFF7B8F904000ED004F15400D4
:1030B0007EB12060C4E90F562046012100F0E0F8FF
:1030C00084F8507000212046A164BDE8F081002002
:1030D000E7E72460EEE700002E2E5C46726565523D
:1030E000544F535C71756575652E63004572726F40
:1030F000723A25732C25640D0A0000002DE9FF4F5C
:1031000083B09B468A4604004FF0000605D140F28A
:10311000DC4251A155A0FDF7D1F8BAF1000F07D15B
:10312000206C28B140F2DD424BA150A0FDF7C6F85B
:1031300000F002FB38B9059828B14FF49C6246A113
:103140004AA0FDF7BBF84FF000094FF08057DFF8B9
:103150002C81FFF7E1FBA56B45B351462046E6689D
:10316000FEF71AFEBBF1000F13D0E660606A50B1A3
:1031700004F1240000F0C2FB28B1C8F80070BFF3CE
:103180004F8FBFF36F8FFFF703FC012007B0BDE83F
:10319000F08F6D1EA563206810B9FFF7C7F9606056
:1031A00020690028EFD004F11000E3E7059808B18A
:1031B0001EB106E0FFF7ECFB27E06846FFF72EFEA6
:1031C0000126FFF7E5FBFFF797FEFFF7A5FB94F954
:1031D0004400401C01D184F8449094F94500401CFF
:1031E00001D184F84590FFF7D3FB05A9684600F0AC
:1031F00033FA002820460AD0FFF7D2F800F0CAFBC5
:103200002046FEF7F9FE0028A3D00020BEE7FEF717
:10321000F3FED8B1206830B9FFF77EFB6068FFF796
:10322000BBFDFFF7B5FB04F124000599FFF75CFD3A
:103230002046FFF7B5F800F0ADFB002889D1C8F8AB
:103240000070BFF34F8FBFF36F8F82E72046FFF709
:10325000A7F800F09FFB7CE72E2E5C467265655256
:10326000544F535C71756575652E63004572726FBE
:10327000723A25732C25640D0A00000004ED00E06D
:1032800070B50D46040005D140F21B121CA121A00F
:10329000FDF714F8FFF740FBD4E90F20216802FB8B
:1032A000001161600021A1632168A1600A46D4E990
:1032B0000F01401E00FB0121E16021464FF0FF306D
:1032C00001F8440F487004F110004DB1FFF7F2FA15
:1032D00004F12400FFF7EEFAFFF75AFB012070BD5E
:1032E00021690029F8D000F009FB0028F4D00D492D
:1032F0004FF080500860BFF34F8FBFF36F8FEBE745
:103300002E2E5C4672656552544F535C717565751F
:10331000652E63004572726F723A25732C25640D19
:103320000A00000004ED00E02DE9FF4F83B099464C
:103330008B4604004FF0000605D140F2D92252A17D
:1033400056A0FCF7BBFFBBF1000F07D1206C28B1E2
:1033500040F2DA224CA151A0FCF7B0FFB9F1020F04
:1033600008D1E06B012805D040F2DB2246A14BA03A
:10337000FCF7A4FF00F0E0F938B9059828B140F255
:10338000DE2241A145A0FCF799FF4FF0000A4FF063
:103390008057DFF81881FFF7BFFAA06BE16B884216
:1033A00006D3B9F1020F03D0059800B316B325E098
:1033B0004A4659462046FEF702FDA16C21B1494616
:1033C0002046FEF727FE05E0616A19B104F12400EA
:1033D00000F094FA28B1C8F80070BFF34F8FBFF324
:1033E0006F8FFFF7D5FA012007B0BDE8F08FFFF728
:1033F000CFFA21E06846FFF711FD0126FFF7C8FA72
:10340000FFF77AFDFFF788FA94F94400401C01D1D8
:1034100084F844A094F94500401C01D184F845A0EB
:10342000FFF7B6FA05A9684600F016F930B1204654
:10343000FEF7B6FF00F0AEFA0020D5E7FFF76CFA12
:10344000A06BE16B884201D1012500E00025FFF768
:103450009FFA95B104F110000599FFF745FC20464D
:10346000FEF79EFF00F096FA002894D1C8F800708D
:10347000BFF34F8FBFF36F8F8DE72046FEF790FFAE
:1034800000F088FA87E700002E2E5C4672656552D0
:10349000544F535C71756575652E63004572726F8C
:1034A000723A25732C25640D0A00000004ED00E03B
:1034B0002DE9F047984615468946040005D140F2AB
:1034C0009F322AA12EA0FCF7F9FEB9F1000F07D117
:1034D000206C28B14FF4687224A129A0FCF7EEFEFD
:1034E000B8F1020F08D1E06B012805D040F2A132FB
:1034F0001EA123A0FCF7E2FEFFF7DAFA5020EFF35B
:10350000118780F31188BFF34F8FBFF36F8FA06BCC
:10351000E16B884207D3B8F1020F04D0002087F393
:103520001188BDE8F08794F9456042464946204637
:10353000FEF745FC701C04D0761C84F84560012021
:10354000EDE7A06C012620B141462046FEF762FD62
:1035500006E0606A0028F2D004F1240000F0CEF901
:103560000028ECD0002DEAD02E60E8E72E2E5C4635
:1035700072656552544F535C71756575652E6300B5
:103580004572726F723A25732C25640D0A00000093
:103590002DE9F0410D46040005D140F23C4225A141
:1035A00029A0FCF78BFE206C28B14FF4886221A182
:1035B00025A0FCF783FE206838B9606828B140F286
:1035C00045421CA120A0FCF779FEFFF771FA5020BC
:1035D000EFF3118680F31188BFF34F8FBFF36F8F26
:1035E000A16BE06B88421FD994F94500491CA16387
:1035F000411C04D0401C84F84500012015E0A06C5B
:10360000012720B100212046FEF704FD06E0606A94
:103610000028F2D004F1240000F070F90028ECD06A
:10362000002DEAD02F60E8E7002086F31188BDE87E
:10363000F08100002E2E5C4672656552544F535C3B
:1036400071756575652E63004572726F723A2573E8
:103650002C25640D0A00000070B50D46040005D14C
:1036600040F6CB3214A119A0FCF728FE2DB940F684
:10367000CC3211A115A0FCF721FEFFF74DF9174A36
:10368000D06829684B1C0FD02368126A934202D07D
:10369000626882420AD96268801A884206D2081A91
:1036A00028602046FFF7BAFB002400E00124FFF762
:1036B0006FF9204670BD00002E2E5C467265655283
:1036C000544F535C7461736B732E63004572726F59
:1036D000723A25732C25640D0A0000007800002042
:1036E0002DE9FF5F8346DDE90E87994616468A4637
:1036F0009000FEF791FE05001AD05C20FEF78CFECC
:10370000040012D025630021CDE90241CDE90087F4
:103710004B46324651465846FEF7CCFB2046FEF754
:1037200081FA012004B0BDE8F09F2846FFF762F956
:103730004FF0FF30F6E700000548416919B1006B12
:1037400018B1002070470120704702207047000028
:10375000780000200148C068704700007800002011
:103760002DE9F0412D4F0026386B40B1B869401C5F
:10377000B861F86900B101263046BDE8F081FD6806
:103780006D1CFD6011D1786B006828B140F6D9122C
:1037900023A128A0FCF792FD786BB96B7963B8631D
:1037A000386A401C3862FEF75BFDB86ADFF8948027
:1037B000854209D3786B006880B1786BC068C468B3
:1037C000606885420DD2B8623868C06A00EB80013B
:1037D00058F821000128CCD90126CAE74FF0FF3064
:1037E000F1E7201DFFF754F8A06A18B104F11800A2
:1037F000FFF74EF8E06A01213A69814011433961CF
:1038000000EB800108EB8100211DFFF779F8E06AE9
:103810003968C96A8842CDD30126CBE778000020F9
:103820002E2E5C4672656552544F535C7461736B07
:10383000732E63004572726F723A25732C25640DE6
:103840000A000000F013002070B504004FF00006DD
:103850003CD01F4D2868844205D040F6C7621DA1A8
:1038600021A0FCF72BFD206D28B940F6C96219A1F3
:103870001DA0FCF723FD206D401E2065E26CE16A6F
:10388000914223D010BB201DFFF702F81A490122F4
:1038900050B9E06A00EB800351F8233023B92B695B
:1038A00002FA00F083432B61E06CE062C0F120007B
:1038B000A061E06A2B6982401A432A6100EB800014
:1038C00001EB8000211DFFF71BF80126304670BD7B
:1038D000780000202E2E5C4672656552544F535C72
:1038E0007461736B732E63004572726F723A257345
:1038F0002C25640D0A000000F01300202DE9F04192
:10390000C068C4682CB940F6613216A11AA0FCF751
:10391000D5FC04F118000746FEF7BAFF1A4D286BD4
:10392000012660B139461948FEF7EAFFE06A2968C6
:10393000C96A884213D90120EE61BDE8F081201DDB
:10394000FEF7A6FFE06A2A6906FA00F11143296131
:103950000F4900EB800001EB8000211DE4E700200F
:10396000EBE700002E2E5C4672656552544F535CA7
:103970007461736B732E63004572726F723A2573B4
:103980002C25640D0A000000780000209816002005
:10399000F01300202DE9F0472B4D00242746286B1B
:1039A00028B94FF4FD6229A12DA0FCF787FCFEF792
:1039B000B3FF286B401E2863286BE8BBA8682C491E
:1039C0000126C8B3A1F52A798846D8F80010E9B1D4
:1039D000D8F80C00C46804F11800FEF759FF201D48
:1039E000FEF756FFE06A2A6906FA00F111432961E1
:1039F00000EB800109EB8100211DFEF781FFE06AE9
:103A00002968C96A8842E0D3EE61DEE70CB1FEF7AF
:103A100027FCAC693CB1FFF7A3FE00B1EE61641E68
:103A2000F9D10020A861E86930B1124901273807AF
:103A30000860BFF34F8F00E001E0BFF36F8FFEF728
:103A4000A7FF3846BDE8F087780000202E2E5C46A0
:103A500072656552544F535C7461736B732E6300CF
:103A60004572726F723A25732C25640D0A000000AE
:103A70009816002004ED00E02DE9F047074699462E
:103A800016460D462C20DDF820A0FEF7C5FC0400EC
:103A900014D0B8464F46D1462DB94FF4C67209A18D
:103AA0000EA0FCF70BFCFEF725F904F11801C4F891
:103AB000008081E8E002201DFEF707FF2046BDE8F8
:103AC000F08700002E2E5C4672656552544F535CA1
:103AD00074696D6572732E63000000004572726F29
:103AE000723A25732C25640D0A0000001CB50024D1
:103AF000FEF700F90C48006868B10B491F20091D4A
:103B0000CDE9000100234FF4827208A10948FFF7B4
:103B1000E7FD040005D140F2331207A10CA0FCF729
:103B2000CDFB20461CBD0000B4000020546D722067
:103B300053766300792300082E2E5C467265655229
:103B4000544F535C74696D6572732E6300000000FE
:103B50004572726F723A25732C25640D0A000000BD
:103B60002DE9FF47DDF830A0994690460D46060046
:103B70004FF0000705D14FF4D37212A117A0FCF744
:103B80009DFB1A4C206880B1CDE900580296062DA5
:103B900011DAFFF7D1FD02284FF0000309D000220F
:103BA00069462068FFF7C0FB074604B03846BDE809
:103BB000F0875246F4E700234A466946FFF778FC4F
:103BC000F2E700002E2E5C4672656552544F535C3E
:103BD00074696D6572732E63000000004572726F28
:103BE000723A25732C25640D0A000000B4000020F1
:103BF000103C0008000000201C0100006C010008BF
:103C00002C3D00081C010020646D000088010008A4
:103C100000000000000000000000000000000000A4
:103C20000000000000000000000000000000000094
:103C30000000000000A24A04000000000000000094
:103C4000010203040607080900000000000000004C
:103C50000000000000000000000000000000000064
:103C60000000000000000000000000000000000054
:103C70000000000002040608000000000102030426
:103C8000010203040607080900000000000000000C
:103C90000000000000000000000000000000000024
:103CA0000000000000000000000000000000000014
:103CB0000000000000000000000000000000000004
:103CC00000000000000000000000000000000000F4
:103CD00000000000000000000000000000000000E4
:103CE00000000000000000000000000000000000D4
:103CF00000000000AAAAAAAA00000000000108A172
:103D000020000000000108A320000000000208B508
:103D100020030600650117A4200000000000000039
:0C3D200000000000000000000000000097
:040000050800027974
:00000001FF
